:020000040800F2
:100000000000012091030008D9030008D90300086B
:10001000D9030008D9030008D90300080000000034
:10002000000000000000000000000000D9030008EC
:10003000D903000800000000D9030008D903000814
:10004000D9030008D9030008D9030008D903000820
:10005000D9030008D9030008D9030008D903000810
:10006000D9030008D9030008D9030008D903000800
:10007000D9030008D9030008D9030008D9030008F0
:10008000D9030008D9030008D9030008D9030008E0
:10009000D9030008D9030008D9030008D9030008D0
:1000A000D9030008D9030008D9030008D9030008C0
:1000B000D9030008D9030008D9030008D9030008B0
:1000C000D9030008D9030008D9030008D9030008A0
:1000D000D9030008D9030008D9030008D903000890
:1000E000D9030008D9030008D9030008D903000880
:1000F000D9030008D9030008D9030008D903000870
:10010000D9030008D9030008D9030008D90300085F
:10011000D9030008D9030008D9030008D90300084F
:10012000D9030008D9030008D9030008D90300083F
:1001300000000000000000000000000000000000BF
:1001400000000000000000000000000000000000AF
:10015000000000000000000000000000000000009F
:10016000000000000000000000000000000000008F
:10017000000000000000000000000000000000007F
:10018000000000000000000000000000000000006F
:10019000000000000000000000000000000000005F
:1001A000000000000000000000000000000000004F
:1001B000000000000000000000000000000000003F
:1001C000000000000000000000000000000000002F
:1001D000000000000000000000000000000000001F
:0401E0005FF8E0F1F3
:1001E4000348044B834202D0034B03B118477047C2
:1001F400000000200000002000000000054806491F
:10020400091A891001EBD171491002D0034B03B1D3
:100214001847704700000020000000200000000084
:1002240010B5064C237843B9FFF7DAFF044B13B13A
:100234000448AFF300800123237010BD00000020A8
:10024400000000002404000808B5054B1BB1054953
:100254000548AFF30080BDE80840FFF7CFBF00BFFB
:10026400000000000400002024040008FEE7000051
:1002740082B00023019300932C4A136843F4803323
:1002840013602A4B1B6803F400330093019B013372
:100294000193009B1BB9019BB3F5A06FF1D1234BD4
:1002A4001B6813F4003F06D001230093009B012B2D
:1002B40004D002B0704700230093F7E71C4B1A6880
:1002C40042F010021A601A6822F003021A601A68D7
:1002D40042F002021A60A3F580535A685A605A68C1
:1002E4005A605A6842F480625A605A6822F47C1256
:1002F4005A605A6842F4E8125A601A6842F08072EE
:100304001A600A4B1B6813F0007FFAD0074B5A6837
:1003140022F003025A605A6842F002025A60034B08
:100324005B6803F00C03082BF9D1C2E7001002400C
:100334000020024008B5FFF79BFF08BD08B5104B2D
:100344001A6842F001021A6059680E4A0A405A605B
:100354001A6822F0847222F480321A601A6822F435
:1003640080221A605A6822F4FE025A604FF41F0277
:100374009A60FFF7DFFF044B4FF000629A6008BDFC
:10038400001002400000FFF800ED00E0002103E04F
:100394000B4B5B58435004310A480B4B42189A42AA
:1003A400F6D30A4A02E0002342F8043B084B9A427F
:1003B400F9D3FFF7C3FF00F00FF8FFF757FF7047BB
:1003C4004404000800000020000000200000002079
:1003D4001C000020FEE7000070B500260C4D0D4CFB
:1003E400641BA410A64209D100F01AF800260A4D95
:1003F4000A4C641BA410A64205D170BD55F8043BF9
:1004040098470136EEE755F8043B98470136F2E782
:100414003C0400083C0400083C04000840040008B4
:10042400F8B500BFF8BC08BC9E467047F8B500BFDD
:08043400F8BC08BC9E467047AD
:04043C004D02000865
:040440002502000889
:04000005080003915B
:00000001FF
